:1000000009C021C08CC01FC01EC01DC05FC01BC066
:100010001AC019C011241FBECFE9CDBF10E0A0E661
:10002000B0E0EEE0F2E002C005900D92A036B1071C
:10003000D9F720E0A0E6B0E001C01D92AA36B207D1
:10004000E1F7CAD0E2C0DCCF1092660010926500E2
:100050001092640010926300089593E090936800FA
:10006000882319F0833070F516C013BE1FBC1092A0
:100070006900EADF89B7846089BF85E986BF19BC5A
:100080001092670082E08FBD83E083BFAB9A8BB78D
:1000900080628BBF17C09BB79F7D9BBF13BE1FBCE9
:1000A0008093690099B7946099BF9FEE96BF19BC81
:1000B00010926700813011F083E301C083E28FBDAD
:1000C00089E083BF82E08093680008951F920F92B9
:1000D0000FB60F9211248F939F9380916800833005
:1000E000B9F080916900811113C0809165009091F1
:1000F0006600019690936600809365008091600091
:10010000882331F010926600109265001092600012
:100110009F918F910F900FBE0F901F9018951F9277
:100120000F920FB60F9211248F939F9380916800C6
:100130008330A9F0809165009091660090936200F1
:1001400080936100B39B05C081E080936800C49AEE
:1001500003C010926800C49881E0809360009F9172
:100160008F910F900FBE0F901F901895882341F02C
:10017000EFEDFEE23197F1F700C000008150C1F7CA
:1001800008950F931F93CF93DF93EC01062FC49A2A
:1001900083E0ECDFC49882E0E9DF002391F010E017
:1001A000C0FF04C0C49A8AE0E1DF03C0C49A85E0BE
:1001B000DDDFD695C795C49882E0D8DF1F5F0113B5
:1001C000EFCFC49A84E1D2DFC49882E0CFDFDF9121
:1001D000CF911F910F9108957894BB98BC9A80E0BD
:1001E0003CDFC2E08091610090916200892BD1F3E5
:1001F000809161009091620060E1C3DF1092620023
:0E02000010926100C0936800EDCFF894FFCF1C
:00000001FF
