:1000000009C016C016C014C013C012C038C010C03A
:100010000FC00EC011241FBECFE9CDBF20E0A0E667
:10002000B0E001C01D92A636B207E1F770D0B2C0B1
:10003000E7CF1F920F920FB60F9211248F939F93C9
:1000400080916500811114C0B39B05C010926400BB
:10005000109263000DC0809162008F5F80936200F8
:1000600080916300909164009093610080936000A0
:100070009F918F910F900FBE0F901F9018951F9218
:100080000F920FB60F9211248F939F93809163006C
:1000900090916400019690936400809363009F9117
:1000A0008F910F900FBE0F901F901895882341F0ED
:1000B000EFEDFEE23197F1F700C000008150C1F78B
:1000C00008950F931F93CF938C01C62FC49A8EE18E
:1000D000EDDFC49882E0EADFCC2379F0C49A00FF18
:1000E00003C08AE0E3DF02C085E0E0DFC498169534
:1000F000079582E0DBDFC15089F7C49A84E1D6DF3F
:10010000C49882E0D3DFCF911F910F910895789426
:1001100089E581BFBC9A1092620010926100109232
:10012000600010926400109263001092650089B71D
:10013000846089BF85E986BF82E08FBD83E083BF8D
:10014000AB9A8BB780628BBF81B760E190E0B9DF7B
:1001500012C080916200853070F0F8948091600048
:100160009091610060E1ADDF81B760E190E0A9DFCF
:1001700010926200789480916500882351F38091F9
:1001800060009091610060E19CDF81B760E190E0E8
:0801900098DFFFCFF894FFCFC8
:00000001FF
